:100000000C945D000C9485000C9485000C94850084
:100010000C9485000C9485000C9485000C9485004C
:100020000C9485000C9485000C9485000C9485003C
:100030000C9485000C9485000C9485000C9485002C
:100040000C94EC020C9485000C9485000C948500B3
:100050000C9485000C9485000C9485000C9485000C
:100060000C9485000C94850000000008000201003B
:100070000003040700000000000000000000000072
:10008000250028002B0000000000240027002A0083
:10009000040404040404040402020202020203032E
:1000A0000303030301020408102040800102040836
:1000B00010200102040810208B0411241FBECFEF72
:1000C000D8E0DEBFCDBF11E0A0E0B1E0EEE1FEE0A0
:1000D00002C005900D92AA32B107D9F721E0AAE239
:1000E000B1E001C01D92AB34B207E1F710E0CDE5FD
:1000F000D0E004C02197FE010E940707CC35D1074C
:10010000C9F70E9436030C940D070C94000090E090
:10011000FC01EC55FF4F249180579F4FFC018491C7
:10012000882399F090E0880F991FFC01EA57FF4F50
:10013000A591B491FC01E458FF4F859194918FB73C
:10014000F894EC91E22BEC938FBF089590E0FC01C2
:10015000E859FF4F2491FC01EC55FF4F3491FC010D
:10016000E057FF4FE491EE23C9F0222339F023300A
:1001700001F1A8F4213019F1223029F1F0E0EE0F5D
:10018000FF1FE458FF4FA591B4918FB7F894EC91FD
:10019000611126C030953E233C938FBF08952730D0
:1001A000A9F02830C9F0243049F7809180008F7D74
:1001B00003C0809180008F7780938000DFCF84B56B
:1001C0008F7784BDDBCF84B58F7DFBCF8091B0006E
:1001D0008F778093B000D2CF8091B0008F7DF9CF20
:1001E0003E2BDACF3FB7F89480912F0190913001E8
:1001F000A0913101B091320126B5A89B05C02F3FD7
:1002000019F00196A11DB11D3FBFBA2FA92F982F3C
:100210008827BC01CD01620F711D811D911D42E037
:10022000660F771F881F991F4A95D1F70895AF92DF
:10023000BF92CF92DF92EF92FF920F931F93CF93D3
:10024000DF936C017B018B01040F151FEB015E0135
:10025000AE18BF08C017D10759F06991D601ED91CA
:10026000FC910190F081E02DC6010995892B79F769
:10027000C501DF91CF911F910F91FF90EF90DF901B
:10028000CF90BF90AF900895089590E080E00895DA
:10029000FC0101900020E9F73197AF01481B590B91
:1002A000BC0183E391E00C9417018F929F92AF926F
:1002B000BF920F931F93CF93DF93CDB7DEB7A19774
:1002C0000FB6F894DEBF0FBECDBF19A2423008F4BE
:1002D0004AE08E010F5D1F4F842E912CB12CA12C72
:1002E000A50194010E94E506E62FB901CA01EA3092
:1002F000F4F4E05DD801EE938D01232B242B252B04
:1003000079F790E080E0109719F0CD010E94480144
:10031000A1960FB6F894DEBF0FBECDBFDF91CF918F
:100320001F910F91BF90AF909F908F900895E95CBF
:10033000E1CFCF93DF93EC0160E08E810E94A600B5
:1003400061E08E810E94A60060E08E810E94A6007E
:100350008BE891E00197F1F7DF91CF910895CF926B
:10036000DF92EF92FF920F931F93CF93DF936C0175
:100370007C0187E0E80EF11CD0E0C0E0062F10E021
:10038000B8010C2E02C0759567950A94E2F761706A
:10039000F70181917F010E94A6002196C430D1050A
:1003A00079F7C601DF91CF911F910F91FF90EF90E8
:1003B000DF90CF900C949901CF92DF92EF92FF9251
:1003C0000F931F93CF93DF93EC01F62E642F8C8154
:1003D0000E94A6008D818F3F19F060E00E94A60068
:1003E0000F2D10E08F8584FF25C06E0187E0C80EB9
:1003F000D11CF12CE12CB8010E2C02C0759567952B
:100400000A94E2F76170F60181916F010E94A600E3
:10041000FFEFEF1AFF0A88E0E816F10461F7CE015A
:10042000DF91CF911F910F91FF90EF90DF90CF90D0
:100430000C949901B80184E0759567958A95E1F768
:10044000CE010E94AF016F2DCE01DF91CF911F91A0
:100450000F91FF90EF90DF90CF900C94AF01CF936E
:10046000DF93823029F49091420198609093420189
:10047000809346011092470180E48093480180E117
:100480008093490180E580934A01809137010E9461
:100490008700809138018F3F11F00E948700809182
:1004A00039010E948700C3E3D1E09E01235331400C
:1004B0008091420184FD0AC084E090E021962817D3
:1004C00039073CF48E810E948700EFCF88E090E0EE
:1004D000F5CF8BE39DE00197F1F760E08091370164
:1004E0000E94A60060E0809139010E94A6008091E0
:1004F00038018F3F19F060E00E94A6006091420130
:1005000064FD45C063E083E391E00E94AF01CBE46A
:10051000D6E4CE010197F1F763E083E391E00E9416
:10052000AF012197F1F763E083E391E00E94AF010F
:1005300083E592E00197F1F762E083E391E00E94A6
:10054000AF0160914201606240E083E391E00E946C
:10055000DC0184E08093430140E06CE083E391E0C0
:100560000E94DC0140E061E083E391E00E94DC0155
:100570008BE39FE10197F1F782E08093440140E033
:1005800066E083E391E0DF91CF910C94DC0160623F
:1005900040E083E391E00E94DC018BE496E4019764
:1005A000F1F760914201606240E083E391E00E94D4
:1005B000DC0183E592E00197F1F76091420160620E
:1005C00040E083E391E00E94DC01BBCF41E00E9468
:1005D000DC0181E090E008951F920F920FB60F9218
:1005E00011242F933F938F939F93AF93BF93809149
:1005F0002B0190912C01A0912D01B0912E013091F1
:100600002A0123E0230F2D3758F50196A11DB11DB6
:1006100020932A0180932B0190932C01A0932D010C
:10062000B0932E0180912F0190913001A091310162
:10063000B09132010196A11DB11D80932F019093BD
:100640003001A0933101B0933201BF91AF919F91DE
:100650008F913F912F910F900FBE0F901F90189583
:1006600026E8230F0296A11DB11DD2CF789484B540
:10067000826084BD84B5816084BD85B5826085BD9E
:1006800085B5816085BD80916E00816080936E002C
:10069000109281008091810082608093810080911E
:1006A00081008160809381008091800081608093CF
:1006B00080008091B10084608093B1008091B0008F
:1006C00081608093B00080917A00846080937A008A
:1006D00080917A00826080937A0080917A008160B4
:1006E00080937A0080917A00806880937A001092DB
:1006F000C10082E00E942F028CE091E00E9448013C
:1007000090E4392E0BE31FE1C0E0D0E030927C0092
:1007100080917A00806480937A0080917A0086FDCF
:10072000FCCF6091780070917900072E000C880B47
:10073000990B0E94BE0520E030E040EA50E40E94A0
:10074000730620E030E040E85AE30E9473062AE096
:1007500037ED43E25CE30E941B056B017C014B011A
:100760005C0140E061E083E391E00E94DC01C801AC
:100770000197F1F7A7019601C701B6010E94E006B3
:10078000882399F189E191E00E94480185E291E096
:100790000E9448010E94F2004B015C0188EEC82EC5
:1007A00083E0D82EE12CF12C0E94F200681979091F
:1007B0008A099B09683E734081059105A8F321E0F1
:1007C000C21AD108E108F10888EE880E83E0981E6D
:1007D000A11CB11CC114D104E104F10429F7209734
:1007E00009F494CF0E94000091CF26013701E894CC
:1007F00077F82FEF3FEF4FE75FE7C301B2010E94A9
:10080000E00681110DC02FEF3FEF4FE75FE7C30117
:10081000B2010E94160518161CF48DE191E0B4CFC8
:100820002FEF3FEF4FE75FE4C701B6010E946E066E
:1008300018161CF481E291E0A7CF2FEF3FEF4FE7AE
:100840005FECC701B6010E94160587FDF3CF20E0DB
:1008500030E0A901C701B6010E94160587FF0CC050
:1008600041E06DE283E391E00E94DC014601570123
:10087000B7FAB094B7F8B0942AE037ED43EA5BE3F7
:10088000C501B4010E94AA044B015C010E948D05C0
:100890006B017C010E94BC059B01AC01C501B40148
:1008A0000E94A9044B015C014AE0C701B6010E9405
:1008B000550141E06EE283E391E00E94DC0120E01B
:1008C00030E040E251E4C501B4010E9473064B01DF
:1008D0005C010E948D056B01F12CE12C4AE0C701FF
:1008E000B6010E945501C701B6010E94BC059B01DB
:1008F000AC01C501B4010E94A90420E030E040E24F
:1009000051E40E9473060E948D0590E080E04AE069
:100910000E9455013BCFE3E3F1E01382128284E0B1
:1009200091E0918380838CE084838FEF85838BE0DB
:10093000868385E0878384E0808783E0818782E007
:1009400082871386148615861686178681E00C9496
:100950002F025058BB27AA270E94C1040C943406CA
:100960000E94260638F00E942D0620F039F49F3FA1
:1009700019F426F40C9423060EF4E095E7FB0C948E
:100980001D06E92F0E94450658F3BA176207730740
:100990008407950720F079F4A6F50C9467060EF409
:1009A000E0950B2EBA2FA02D0B01B90190010C017F
:1009B000CA01A0011124FF27591B99F0593F50F497
:1009C000503E68F11A16F040A22F232F342F4427EF
:1009D000585FF3CF469537952795A795F0405395E7
:1009E000C9F77EF41F16BA0B620B730B840BBAF0B7
:1009F0009150A1F0FF0FBB1F661F771F881FC2F722
:100A00000EC0BA0F621F731F841F48F48795779535
:100A10006795B795F7959E3F08F0B0CF9395880FEF
:100A200008F09927EE0F9795879508950E94F9058C
:100A300008F481E008950E942F050C9434060E946A
:100A40002D0658F00E94260640F029F45F3F29F059
:100A50000C941D0651110C9468060C9423060E94F8
:100A6000450668F39923B1F3552391F3951B550B74
:100A7000BB27AA2762177307840738F09F5F5F4F71
:100A8000220F331F441FAA1FA9F335D00E2E3AF0B0
:100A9000E0E832D091505040E695001CCAF72BD0C8
:100AA000FE2F29D0660F771F881FBB1F2617370719
:100AB0004807AB07B0E809F0BB0B802DBF01FF274B
:100AC00093585F4F3AF09E3F510578F00C941D0605
:100AD0000C9468065F3FE4F3983ED4F386957795CF
:100AE0006795B795F7959F5FC9F7880F911D969504
:100AF000879597F90895E1E0660F771F881FBB1F60
:100B0000621773078407BA0720F0621B730B840B0C
:100B1000BA0BEE1F88F7E09508950E944D0688F005
:100B20009F5798F0B92F9927B751B0F0E1F0660FB1
:100B3000771F881F991F1AF0BA95C9F714C0B130F2
:100B400091F00E946706B1E008950C946706672F44
:100B5000782F8827B85F39F0B93FCCF38695779521
:100B60006795B395D9F73EF490958095709561950A
:100B70007F4F8F4F9F4F0895E89409C097FB3EF435
:100B800090958095709561957F4F8F4F9F4F9923DA
:100B9000A9F0F92F96E9BB279395F6958795779558
:100BA0006795B795F111F8CFFAF4BB0F11F460FF18
:100BB0001BC06F5F7F4F8F4F9F4F16C0882311F070
:100BC00096E911C0772321F09EE8872F762F05C084
:100BD000662371F096E8862F70E060E02AF09A951F
:100BE000660F771F881FDAF7880F9695879597F914
:100BF0000895990F0008550FAA0BE0E8FEEF1616AE
:100C00001706E807F907C0F012161306E407F50700
:100C100098F0621B730B840B950B39F40A2661F074
:100C2000232B242B252B21F408950A2609F4A14017
:100C3000A6958FEF811D811D089597F99F6780E824
:100C400070E060E008959FEF80EC089500240A941E
:100C50001616170618060906089500240A94121697
:100C60001306140605060895092E0394000C11F4CA
:100C7000882352F0BB0F40F4BF2B11F460FF04C077
:100C80006F5F7F4F8F4F9F4F089557FD9058440FD0
:100C9000551F59F05F3F71F04795880F97FB991FDB
:100CA00061F09F3F79F08795089512161306140698
:100CB000551FF2CF4695F1DF08C016161706180625
:100CC000991FF1CF86957105610508940895E89400
:100CD000BB2766277727CB0197F908950E94F9056E
:100CE00008F48FEF08950E9486060C9434060E9443
:100CF000260638F00E942D0620F0952311F00C9462
:100D00001D060C94230611240C9468060E944506C7
:100D100070F3959FC1F3950F50E0551F629FF0014E
:100D2000729FBB27F00DB11D639FAA27F00DB11D67
:100D3000AA1F649F6627B00DA11D661F829F2227F0
:100D4000B00DA11D621F739FB00DA11D621F839F77
:100D5000A00D611D221F749F3327A00D611D231F4D
:100D6000849F600D211D822F762F6A2F11249F579B
:100D700050409AF0F1F088234AF0EE0FFF1FBB1F9E
:100D8000661F771F881F91505040A9F79E3F51055D
:100D900080F00C941D060C9468065F3FE4F3983EC7
:100DA000D4F3869577956795B795F795E7959F5F07
:100DB000C1F7FE2B880F911D9695879597F9089599
:100DC0000E94F905880B990B0895A1E21A2EAA1B1F
:100DD000BB1BFD010DC0AA1FBB1FEE1FFF1FA217EB
:100DE000B307E407F50720F0A21BB30BE40BF50BE8
:100DF000661F771F881F991F1A9469F76095709571
:100E0000809590959B01AC01BD01CF010895EE0F37
:0E0E1000FF1F0590F491E02D0994F894FFCF98
:100E1E0000000000E60217014501440154656D70A3
:100E2E00657261747572653A006E616E00696E6608
:0A0E3E00006F766600C2B0430000AA
:00000001FF
